{
  "contractName": "LeekCoinCrowdsale",
  "abi": [
    {
      "constant": false,
      "inputs": [],
      "name": "checkGoalReached",
      "outputs": [],
      "payable": false,
      "stateMutability": "nonpayable",
      "type": "function"
    },
    {
      "constant": true,
      "inputs": [],
      "name": "deadline",
      "outputs": [
        {
          "name": "",
          "type": "uint256"
        }
      ],
      "payable": false,
      "stateMutability": "view",
      "type": "function"
    },
    {
      "constant": true,
      "inputs": [],
      "name": "beneficiary",
      "outputs": [
        {
          "name": "",
          "type": "address"
        }
      ],
      "payable": false,
      "stateMutability": "view",
      "type": "function"
    },
    {
      "constant": true,
      "inputs": [],
      "name": "tokenReward",
      "outputs": [
        {
          "name": "",
          "type": "address"
        }
      ],
      "payable": false,
      "stateMutability": "view",
      "type": "function"
    },
    {
      "constant": true,
      "inputs": [
        {
          "name": "",
          "type": "address"
        }
      ],
      "name": "balanceOf",
      "outputs": [
        {
          "name": "",
          "type": "uint256"
        }
      ],
      "payable": false,
      "stateMutability": "view",
      "type": "function"
    },
    {
      "constant": true,
      "inputs": [],
      "name": "fundingGoal",
      "outputs": [
        {
          "name": "",
          "type": "uint256"
        }
      ],
      "payable": false,
      "stateMutability": "view",
      "type": "function"
    },
    {
      "constant": true,
      "inputs": [],
      "name": "amountRaised",
      "outputs": [
        {
          "name": "",
          "type": "uint256"
        }
      ],
      "payable": false,
      "stateMutability": "view",
      "type": "function"
    },
    {
      "constant": true,
      "inputs": [],
      "name": "price",
      "outputs": [
        {
          "name": "",
          "type": "uint256"
        }
      ],
      "payable": false,
      "stateMutability": "view",
      "type": "function"
    },
    {
      "constant": true,
      "inputs": [],
      "name": "crowdsaleClosed",
      "outputs": [
        {
          "name": "",
          "type": "bool"
        }
      ],
      "payable": false,
      "stateMutability": "view",
      "type": "function"
    },
    {
      "constant": true,
      "inputs": [],
      "name": "fundingGoalReached",
      "outputs": [
        {
          "name": "",
          "type": "bool"
        }
      ],
      "payable": false,
      "stateMutability": "view",
      "type": "function"
    },
    {
      "constant": false,
      "inputs": [],
      "name": "safeWithdrawal",
      "outputs": [],
      "payable": false,
      "stateMutability": "nonpayable",
      "type": "function"
    },
    {
      "inputs": [
        {
          "name": "ifSuccessfulSendTo",
          "type": "address"
        },
        {
          "name": "fundingGoalInEthers",
          "type": "uint256"
        },
        {
          "name": "durationInMinutes",
          "type": "uint256"
        },
        {
          "name": "etherCostOfEachToken",
          "type": "uint256"
        },
        {
          "name": "addressOfTokenUsedAsReward",
          "type": "address"
        }
      ],
      "payable": false,
      "stateMutability": "nonpayable",
      "type": "constructor"
    },
    {
      "payable": true,
      "stateMutability": "payable",
      "type": "fallback"
    },
    {
      "anonymous": false,
      "inputs": [
        {
          "indexed": false,
          "name": "recipient",
          "type": "address"
        },
        {
          "indexed": false,
          "name": "totalAmountRaised",
          "type": "uint256"
        }
      ],
      "name": "GoalReached",
      "type": "event"
    },
    {
      "anonymous": false,
      "inputs": [
        {
          "indexed": false,
          "name": "backer",
          "type": "address"
        },
        {
          "indexed": false,
          "name": "amount",
          "type": "uint256"
        },
        {
          "indexed": false,
          "name": "isContribution",
          "type": "bool"
        }
      ],
      "name": "FundTransfer",
      "type": "event"
    },
    {
      "constant": false,
      "inputs": [
        {
          "name": "_newOwner",
          "type": "address"
        }
      ],
      "name": "transferOwnership",
      "outputs": [],
      "payable": false,
      "stateMutability": "nonpayable",
      "type": "function"
    }
  ],
  "bytecode": "0x60606040526000600760006101000a81548160ff0219169083151502179055506000600760016101000a81548160ff021916908315150217905550341561004557600080fd5b60405160a080610c3383398101604052808051906020019091908051906020019091908051906020019091908051906020019091908051906020019091905050846000806101000a81548173ffffffffffffffffffffffffffffffffffffffff021916908373ffffffffffffffffffffffffffffffffffffffff160217905550670de0b6b3a76400008402600181905550603c83024201600381905550670de0b6b3a7640000820260048190555080600560006101000a81548173ffffffffffffffffffffffffffffffffffffffff021916908373ffffffffffffffffffffffffffffffffffffffff1602179055505050505050610aeb806101486000396000f3006060604052600436106100ba576000357c0100000000000000000000000000000000000000000000000000000000900463ffffffff16806301cb3b201461027c57806329dcb0cf1461029157806338af3eed146102ba5780636e66f6e91461030f57806370a08231146103645780637a3a0e84146103b15780637b3e5e7b146103da578063a035b1fe14610403578063ccb07cef1461042c578063d424f62814610459578063f2fde38b14610486578063fd6b7ef8146104bf575b600034905080600660003373ffffffffffffffffffffffffffffffffffffffff1673ffffffffffffffffffffffffffffffffffffffff1681526020019081526020016000206000828254019250508190555080600260008282540192505081905550600560009054906101000a900473ffffffffffffffffffffffffffffffffffffffff1673ffffffffffffffffffffffffffffffffffffffff166340c10f19336004548481151561016857fe5b046040518363ffffffff167c0100000000000000000000000000000000000000000000000000000000028152600401808373ffffffffffffffffffffffffffffffffffffffff1673ffffffffffffffffffffffffffffffffffffffff16815260200182815260200192505050600060405180830381600087803b15156101ed57600080fd5b6102c65a03f115156101fe57600080fd5b5050507fe842aea7a5f1b01049d752008c53c52890b1a6daf660cf39e8eec506112bbdf633826001604051808473ffffffffffffffffffffffffffffffffffffffff1673ffffffffffffffffffffffffffffffffffffffff16815260200183815260200182151515158152602001935050505060405180910390a150005b341561028757600080fd5b61028f6104d4565b005b341561029c57600080fd5b6102a46105b4565b6040518082815260200191505060405180910390f35b34156102c557600080fd5b6102cd6105ba565b604051808273ffffffffffffffffffffffffffffffffffffffff1673ffffffffffffffffffffffffffffffffffffffff16815260200191505060405180910390f35b341561031a57600080fd5b6103226105df565b604051808273ffffffffffffffffffffffffffffffffffffffff1673ffffffffffffffffffffffffffffffffffffffff16815260200191505060405180910390f35b341561036f57600080fd5b61039b600480803573ffffffffffffffffffffffffffffffffffffffff16906020019091905050610605565b6040518082815260200191505060405180910390f35b34156103bc57600080fd5b6103c461061d565b6040518082815260200191505060405180910390f35b34156103e557600080fd5b6103ed610623565b6040518082815260200191505060405180910390f35b341561040e57600080fd5b610416610629565b6040518082815260200191505060405180910390f35b341561043757600080fd5b61043f61062f565b604051808215151515815260200191505060405180910390f35b341561046457600080fd5b61046c610642565b604051808215151515815260200191505060405180910390f35b341561049157600080fd5b6104bd600480803573ffffffffffffffffffffffffffffffffffffffff16906020019091905050610655565b005b34156104ca57600080fd5b6104d2610783565b005b600354421015156105b257600154600254101515610596576001600760006101000a81548160ff0219169083151502179055507fec3f991caf7857d61663fd1bba1739e04abd4781238508cde554bb849d790c856000809054906101000a900473ffffffffffffffffffffffffffffffffffffffff16600254604051808373ffffffffffffffffffffffffffffffffffffffff1673ffffffffffffffffffffffffffffffffffffffff1681526020018281526020019250505060405180910390a15b6001600760016101000a81548160ff0219169083151502179055505b565b60035481565b6000809054906101000a900473ffffffffffffffffffffffffffffffffffffffff1681565b600560009054906101000a900473ffffffffffffffffffffffffffffffffffffffff1681565b60066020528060005260406000206000915090505481565b60015481565b60025481565b60045481565b600760019054906101000a900460ff1681565b600760009054906101000a900460ff1681565b6000809054906101000a900473ffffffffffffffffffffffffffffffffffffffff1673ffffffffffffffffffffffffffffffffffffffff163373ffffffffffffffffffffffffffffffffffffffff161415156106b057600080fd5b600560009054906101000a900473ffffffffffffffffffffffffffffffffffffffff1673ffffffffffffffffffffffffffffffffffffffff1663f2fde38b336040518263ffffffff167c0100000000000000000000000000000000000000000000000000000000028152600401808273ffffffffffffffffffffffffffffffffffffffff1673ffffffffffffffffffffffffffffffffffffffff168152602001915050600060405180830381600087803b151561076c57600080fd5b6102c65a03f1151561077d57600080fd5b50505050565b600060035442101515610abc57600760009054906101000a900460ff16151561093457600660003373ffffffffffffffffffffffffffffffffffffffff1673ffffffffffffffffffffffffffffffffffffffff1681526020019081526020016000205490506000600660003373ffffffffffffffffffffffffffffffffffffffff1673ffffffffffffffffffffffffffffffffffffffff168152602001908152602001600020819055506000811115610933573373ffffffffffffffffffffffffffffffffffffffff166108fc829081150290604051600060405180830381858888f19350505050156108ed577fe842aea7a5f1b01049d752008c53c52890b1a6daf660cf39e8eec506112bbdf633826000604051808473ffffffffffffffffffffffffffffffffffffffff1673ffffffffffffffffffffffffffffffffffffffff16815260200183815260200182151515158152602001935050505060405180910390a1610932565b80600660003373ffffffffffffffffffffffffffffffffffffffff1673ffffffffffffffffffffffffffffffffffffffff168152602001908152602001600020819055505b5b5b600760009054906101000a900460ff16801561099c57503373ffffffffffffffffffffffffffffffffffffffff166000809054906101000a900473ffffffffffffffffffffffffffffffffffffffff1673ffffffffffffffffffffffffffffffffffffffff16145b15610abb576000809054906101000a900473ffffffffffffffffffffffffffffffffffffffff1673ffffffffffffffffffffffffffffffffffffffff166108fc6002549081150290604051600060405180830381858888f1935050505015610a9e577fe842aea7a5f1b01049d752008c53c52890b1a6daf660cf39e8eec506112bbdf66000809054906101000a900473ffffffffffffffffffffffffffffffffffffffff166002546000604051808473ffffffffffffffffffffffffffffffffffffffff1673ffffffffffffffffffffffffffffffffffffffff16815260200183815260200182151515158152602001935050505060405180910390a1610aba565b6000600760006101000a81548160ff0219169083151502179055505b5b5b505600a165627a7a72305820d31940f4b4587ffe50f8cf5c0d7430b870f13391c29f678fb60ffe0855d2a8570029",
  "source": "pragma solidity ^0.4.16;\r\n\r\ninterface token {\r\n    function getCurrentOwner() returns (address);\r\n    function transferOwnership(address newOwner);\r\n    function mint(address receiver, uint256 amount);\r\n}\r\n\r\ncontract LeekCoinCrowdsale {\r\n    address public beneficiary;\r\n    uint public fundingGoal;\r\n    uint public amountRaised;\r\n    uint public deadline;\r\n    uint public price;\r\n    token public tokenReward;\r\n    mapping(address => uint256) public balanceOf;\r\n    bool public fundingGoalReached = false;\r\n    bool public crowdsaleClosed = false;\r\n\r\n    event GoalReached(address recipient, uint totalAmountRaised);\r\n    event FundTransfer(address backer, uint amount, bool isContribution);\r\n\r\n    /**\r\n     * Constrctor function\r\n     *\r\n     * Setup the owner\r\n     */\r\n    function LeekCoinCrowdsale(\r\n        address ifSuccessfulSendTo,\r\n        uint fundingGoalInEthers,\r\n        uint durationInMinutes,\r\n        uint etherCostOfEachToken,\r\n        address addressOfTokenUsedAsReward\r\n    ) {\r\n        beneficiary = ifSuccessfulSendTo;\r\n        fundingGoal = fundingGoalInEthers * 1 ether;\r\n        deadline = now + durationInMinutes * 1 minutes;\r\n        price = etherCostOfEachToken * 1 ether;\r\n        tokenReward = token(addressOfTokenUsedAsReward);\r\n    }\r\n\r\n    /**\r\n     * Fallback function\r\n     *\r\n     * The function without name is the default function that is called whenever anyone sends funds to a contract\r\n     */\r\n    function () payable {\r\n        //require(!crowdsaleClosed);\r\n        uint amount = msg.value;\r\n        balanceOf[msg.sender] += amount;\r\n        amountRaised += amount;\r\n        tokenReward.mint(msg.sender, amount / price);\r\n        FundTransfer(msg.sender, amount, true);\r\n    }\r\n\r\n    modifier afterDeadline() { if (now >= deadline) _; }\r\n\r\n    /**\r\n     * Check if goal was reached\r\n     *\r\n     * Checks if the goal or time limit has been reached and ends the campaign\r\n     */\r\n    function checkGoalReached() afterDeadline {\r\n        if (amountRaised >= fundingGoal){\r\n            fundingGoalReached = true;\r\n            GoalReached(beneficiary, amountRaised);\r\n        }\r\n        crowdsaleClosed = true;\r\n    }\r\n\r\n\r\n    /**\r\n     * Withdraw the funds\r\n     *\r\n     * Checks to see if goal or time limit has been reached, and if so, and the funding goal was reached,\r\n     * sends the entire amount to the beneficiary. If goal was not reached, each contributor can withdraw\r\n     * the amount they contributed.\r\n     */\r\n    function safeWithdrawal() afterDeadline {\r\n        if (!fundingGoalReached) {\r\n            uint amount = balanceOf[msg.sender];\r\n            balanceOf[msg.sender] = 0;\r\n            if (amount > 0) {\r\n                if (msg.sender.send(amount)) {\r\n                    FundTransfer(msg.sender, amount, false);\r\n                } else {\r\n                    balanceOf[msg.sender] = amount;\r\n                }\r\n            }\r\n        }\r\n\r\n        if (fundingGoalReached && beneficiary == msg.sender) {\r\n            if (beneficiary.send(amountRaised)) {\r\n                FundTransfer(beneficiary, amountRaised, false);\r\n            } else {\r\n                //If we fail to send the funds to beneficiary, unlock funders balance\r\n                fundingGoalReached = false;\r\n            }\r\n        }\r\n    }\r\n\r\n    function transferOwnership(address _newOwner) public {\r\n      require(msg.sender == beneficiary); // Only the owner of the crowdsale contract should be able to call this function.\r\n\r\n      // I assume the crowdsale contract holds a reference to the token contract.\r\n      tokenReward.transferOwnership(msg.sender);\r\n    }\r\n}\r\n",
  "sourcePath": "C:\\Users\\yubolun\\Desktop\\my-ico\\contracts\\LeekCoinCrowdsale.sol",
  "compiler": {
    "name": "solc",
    "version": "0.4.19+commit.c4cbbb05.Emscripten.clang"
  },
  "schemaVersion": "1.0.1",
  "updatedAt": "2018-02-05T13:02:43.664Z"
}