{
  "contractName": "LeekCoinCrowdsale",
  "abi": [
    {
      "constant": false,
      "inputs": [],
      "name": "checkGoalReached",
      "outputs": [],
      "payable": false,
      "stateMutability": "nonpayable",
      "type": "function"
    },
    {
      "constant": true,
      "inputs": [],
      "name": "deadline",
      "outputs": [
        {
          "name": "",
          "type": "uint256"
        }
      ],
      "payable": false,
      "stateMutability": "view",
      "type": "function"
    },
    {
      "constant": true,
      "inputs": [],
      "name": "beneficiary",
      "outputs": [
        {
          "name": "",
          "type": "address"
        }
      ],
      "payable": false,
      "stateMutability": "view",
      "type": "function"
    },
    {
      "constant": true,
      "inputs": [],
      "name": "tokenReward",
      "outputs": [
        {
          "name": "",
          "type": "address"
        }
      ],
      "payable": false,
      "stateMutability": "view",
      "type": "function"
    },
    {
      "constant": true,
      "inputs": [
        {
          "name": "",
          "type": "address"
        }
      ],
      "name": "balanceOf",
      "outputs": [
        {
          "name": "",
          "type": "uint256"
        }
      ],
      "payable": false,
      "stateMutability": "view",
      "type": "function"
    },
    {
      "constant": true,
      "inputs": [],
      "name": "fundingGoal",
      "outputs": [
        {
          "name": "",
          "type": "uint256"
        }
      ],
      "payable": false,
      "stateMutability": "view",
      "type": "function"
    },
    {
      "constant": true,
      "inputs": [],
      "name": "amountRaised",
      "outputs": [
        {
          "name": "",
          "type": "uint256"
        }
      ],
      "payable": false,
      "stateMutability": "view",
      "type": "function"
    },
    {
      "constant": true,
      "inputs": [],
      "name": "price",
      "outputs": [
        {
          "name": "",
          "type": "uint256"
        }
      ],
      "payable": false,
      "stateMutability": "view",
      "type": "function"
    },
    {
      "constant": true,
      "inputs": [],
      "name": "crowdsaleClosed",
      "outputs": [
        {
          "name": "",
          "type": "bool"
        }
      ],
      "payable": false,
      "stateMutability": "view",
      "type": "function"
    },
    {
      "constant": false,
      "inputs": [],
      "name": "buyTokens",
      "outputs": [],
      "payable": true,
      "stateMutability": "payable",
      "type": "function"
    },
    {
      "constant": true,
      "inputs": [],
      "name": "fundingGoalReached",
      "outputs": [
        {
          "name": "",
          "type": "bool"
        }
      ],
      "payable": false,
      "stateMutability": "view",
      "type": "function"
    },
    {
      "constant": false,
      "inputs": [],
      "name": "safeWithdrawal",
      "outputs": [],
      "payable": false,
      "stateMutability": "nonpayable",
      "type": "function"
    },
    {
      "inputs": [
        {
          "name": "ifSuccessfulSendTo",
          "type": "address"
        },
        {
          "name": "fundingGoalInEthers",
          "type": "uint256"
        },
        {
          "name": "durationInMinutes",
          "type": "uint256"
        },
        {
          "name": "etherCostOfEachToken",
          "type": "uint256"
        },
        {
          "name": "addressOfTokenUsedAsReward",
          "type": "address"
        }
      ],
      "payable": false,
      "stateMutability": "nonpayable",
      "type": "constructor"
    },
    {
      "payable": true,
      "stateMutability": "payable",
      "type": "fallback"
    },
    {
      "anonymous": false,
      "inputs": [
        {
          "indexed": false,
          "name": "recipient",
          "type": "address"
        },
        {
          "indexed": false,
          "name": "totalAmountRaised",
          "type": "uint256"
        }
      ],
      "name": "GoalReached",
      "type": "event"
    },
    {
      "anonymous": false,
      "inputs": [
        {
          "indexed": false,
          "name": "backer",
          "type": "address"
        },
        {
          "indexed": false,
          "name": "amount",
          "type": "uint256"
        },
        {
          "indexed": false,
          "name": "isContribution",
          "type": "bool"
        }
      ],
      "name": "FundTransfer",
      "type": "event"
    },
    {
      "constant": false,
      "inputs": [
        {
          "name": "_newOwner",
          "type": "address"
        }
      ],
      "name": "transferOwnership",
      "outputs": [],
      "payable": false,
      "stateMutability": "nonpayable",
      "type": "function"
    }
  ],
  "bytecode": "0x60606040526000600760006101000a81548160ff0219169083151502179055506000600760016101000a81548160ff021916908315150217905550341561004557600080fd5b60405160a080610c6e83398101604052808051906020019091908051906020019091908051906020019091908051906020019091908051906020019091905050846000806101000a81548173ffffffffffffffffffffffffffffffffffffffff021916908373ffffffffffffffffffffffffffffffffffffffff160217905550670de0b6b3a76400008402600181905550603c83024201600381905550670de0b6b3a7640000820260048190555080600560006101000a81548173ffffffffffffffffffffffffffffffffffffffff021916908373ffffffffffffffffffffffffffffffffffffffff1602179055505050505050610b26806101486000396000f3006060604052600436106100c5576000357c0100000000000000000000000000000000000000000000000000000000900463ffffffff16806301cb3b20146100cf57806329dcb0cf146100e457806338af3eed1461010d5780636e66f6e91461016257806370a08231146101b75780637a3a0e84146102045780637b3e5e7b1461022d578063a035b1fe14610256578063ccb07cef1461027f578063d0febe4c146102ac578063d424f628146102b6578063f2fde38b146102e3578063fd6b7ef81461031c575b6100cd610331565b005b34156100da57600080fd5b6100e261050f565b005b34156100ef57600080fd5b6100f76105ef565b6040518082815260200191505060405180910390f35b341561011857600080fd5b6101206105f5565b604051808273ffffffffffffffffffffffffffffffffffffffff1673ffffffffffffffffffffffffffffffffffffffff16815260200191505060405180910390f35b341561016d57600080fd5b61017561061a565b604051808273ffffffffffffffffffffffffffffffffffffffff1673ffffffffffffffffffffffffffffffffffffffff16815260200191505060405180910390f35b34156101c257600080fd5b6101ee600480803573ffffffffffffffffffffffffffffffffffffffff16906020019091905050610640565b6040518082815260200191505060405180910390f35b341561020f57600080fd5b610217610658565b6040518082815260200191505060405180910390f35b341561023857600080fd5b61024061065e565b6040518082815260200191505060405180910390f35b341561026157600080fd5b610269610664565b6040518082815260200191505060405180910390f35b341561028a57600080fd5b61029261066a565b604051808215151515815260200191505060405180910390f35b6102b4610331565b005b34156102c157600080fd5b6102c961067d565b604051808215151515815260200191505060405180910390f35b34156102ee57600080fd5b61031a600480803573ffffffffffffffffffffffffffffffffffffffff16906020019091905050610690565b005b341561032757600080fd5b61032f6107be565b005b6000600760019054906101000a900460ff1615151561034f57600080fd5b34905080600660003373ffffffffffffffffffffffffffffffffffffffff1673ffffffffffffffffffffffffffffffffffffffff1681526020019081526020016000206000828254019250508190555080600260008282540192505081905550600560009054906101000a900473ffffffffffffffffffffffffffffffffffffffff1673ffffffffffffffffffffffffffffffffffffffff166340c10f1933600454848115156103fb57fe5b046040518363ffffffff167c0100000000000000000000000000000000000000000000000000000000028152600401808373ffffffffffffffffffffffffffffffffffffffff1673ffffffffffffffffffffffffffffffffffffffff16815260200182815260200192505050600060405180830381600087803b151561048057600080fd5b6102c65a03f1151561049157600080fd5b5050507fe842aea7a5f1b01049d752008c53c52890b1a6daf660cf39e8eec506112bbdf633826001604051808473ffffffffffffffffffffffffffffffffffffffff1673ffffffffffffffffffffffffffffffffffffffff16815260200183815260200182151515158152602001935050505060405180910390a150565b600354421015156105ed576001546002541015156105d1576001600760006101000a81548160ff0219169083151502179055507fec3f991caf7857d61663fd1bba1739e04abd4781238508cde554bb849d790c856000809054906101000a900473ffffffffffffffffffffffffffffffffffffffff16600254604051808373ffffffffffffffffffffffffffffffffffffffff1673ffffffffffffffffffffffffffffffffffffffff1681526020018281526020019250505060405180910390a15b6001600760016101000a81548160ff0219169083151502179055505b565b60035481565b6000809054906101000a900473ffffffffffffffffffffffffffffffffffffffff1681565b600560009054906101000a900473ffffffffffffffffffffffffffffffffffffffff1681565b60066020528060005260406000206000915090505481565b60015481565b60025481565b60045481565b600760019054906101000a900460ff1681565b600760009054906101000a900460ff1681565b6000809054906101000a900473ffffffffffffffffffffffffffffffffffffffff1673ffffffffffffffffffffffffffffffffffffffff163373ffffffffffffffffffffffffffffffffffffffff161415156106eb57600080fd5b600560009054906101000a900473ffffffffffffffffffffffffffffffffffffffff1673ffffffffffffffffffffffffffffffffffffffff1663f2fde38b336040518263ffffffff167c0100000000000000000000000000000000000000000000000000000000028152600401808273ffffffffffffffffffffffffffffffffffffffff1673ffffffffffffffffffffffffffffffffffffffff168152602001915050600060405180830381600087803b15156107a757600080fd5b6102c65a03f115156107b857600080fd5b50505050565b600060035442101515610af757600760009054906101000a900460ff16151561096f57600660003373ffffffffffffffffffffffffffffffffffffffff1673ffffffffffffffffffffffffffffffffffffffff1681526020019081526020016000205490506000600660003373ffffffffffffffffffffffffffffffffffffffff1673ffffffffffffffffffffffffffffffffffffffff16815260200190815260200160002081905550600081111561096e573373ffffffffffffffffffffffffffffffffffffffff166108fc829081150290604051600060405180830381858888f1935050505015610928577fe842aea7a5f1b01049d752008c53c52890b1a6daf660cf39e8eec506112bbdf633826000604051808473ffffffffffffffffffffffffffffffffffffffff1673ffffffffffffffffffffffffffffffffffffffff16815260200183815260200182151515158152602001935050505060405180910390a161096d565b80600660003373ffffffffffffffffffffffffffffffffffffffff1673ffffffffffffffffffffffffffffffffffffffff168152602001908152602001600020819055505b5b5b600760009054906101000a900460ff1680156109d757503373ffffffffffffffffffffffffffffffffffffffff166000809054906101000a900473ffffffffffffffffffffffffffffffffffffffff1673ffffffffffffffffffffffffffffffffffffffff16145b15610af6576000809054906101000a900473ffffffffffffffffffffffffffffffffffffffff1673ffffffffffffffffffffffffffffffffffffffff166108fc6002549081150290604051600060405180830381858888f1935050505015610ad9577fe842aea7a5f1b01049d752008c53c52890b1a6daf660cf39e8eec506112bbdf66000809054906101000a900473ffffffffffffffffffffffffffffffffffffffff166002546000604051808473ffffffffffffffffffffffffffffffffffffffff1673ffffffffffffffffffffffffffffffffffffffff16815260200183815260200182151515158152602001935050505060405180910390a1610af5565b6000600760006101000a81548160ff0219169083151502179055505b5b5b505600a165627a7a72305820f21e9846348350ddea3df99ff5490616ffed716718055004df07ea2d6c64159e0029",
  "source": "pragma solidity ^0.4.16;\r\n\r\ninterface token {\r\n    function getCurrentOwner() returns (address);\r\n    function transferOwnership(address newOwner);\r\n    function mint(address receiver, uint256 amount);\r\n}\r\n\r\ncontract LeekCoinCrowdsale {\r\n    address public beneficiary;\r\n    uint public fundingGoal;\r\n    uint public amountRaised;\r\n    uint public deadline;\r\n    uint public price;\r\n    token public tokenReward;\r\n    mapping(address => uint256) public balanceOf;\r\n    bool public fundingGoalReached = false;\r\n    bool public crowdsaleClosed = false;\r\n\r\n    event GoalReached(address recipient, uint totalAmountRaised);\r\n    event FundTransfer(address backer, uint amount, bool isContribution);\r\n\r\n    /**\r\n     * Constrctor function\r\n     *\r\n     * Setup the owner\r\n     */\r\n    function LeekCoinCrowdsale(\r\n        address ifSuccessfulSendTo,\r\n        uint fundingGoalInEthers,\r\n        uint durationInMinutes,\r\n        uint etherCostOfEachToken,\r\n        address addressOfTokenUsedAsReward\r\n    ) {\r\n        beneficiary = ifSuccessfulSendTo;\r\n        fundingGoal = fundingGoalInEthers * 1 ether;\r\n        deadline = now + durationInMinutes * 1 minutes;\r\n        price = etherCostOfEachToken * 1 ether;\r\n        tokenReward = token(addressOfTokenUsedAsReward);\r\n    }\r\n\r\n    /**\r\n     * Fallback function\r\n     *\r\n     * The function without name is the default function that is called whenever anyone sends funds to a contract\r\n     */\r\n    function () external payable {\r\n        buyTokens();\r\n    }\r\n\r\n    // low level token purchase function\r\n    function buyTokens() public payable {\r\n        require(!crowdsaleClosed);\r\n        uint amount = msg.value;\r\n        balanceOf[msg.sender] += amount;\r\n        amountRaised += amount;\r\n        tokenReward.mint(msg.sender, amount / price);\r\n        FundTransfer(msg.sender, amount, true);\r\n    }\r\n\r\n    modifier afterDeadline() { if (now >= deadline) _; }\r\n\r\n    /**\r\n     * Check if goal was reached\r\n     *\r\n     * Checks if the goal or time limit has been reached and ends the campaign\r\n     */\r\n    function checkGoalReached() afterDeadline {\r\n        if (amountRaised >= fundingGoal){\r\n            fundingGoalReached = true;\r\n            GoalReached(beneficiary, amountRaised);\r\n        }\r\n        crowdsaleClosed = true;\r\n    }\r\n\r\n\r\n    /**\r\n     * Withdraw the funds\r\n     *\r\n     * Checks to see if goal or time limit has been reached, and if so, and the funding goal was reached,\r\n     * sends the entire amount to the beneficiary. If goal was not reached, each contributor can withdraw\r\n     * the amount they contributed.\r\n     */\r\n    function safeWithdrawal() afterDeadline {\r\n        if (!fundingGoalReached) {\r\n            uint amount = balanceOf[msg.sender];\r\n            balanceOf[msg.sender] = 0;\r\n            if (amount > 0) {\r\n                if (msg.sender.send(amount)) {\r\n                    FundTransfer(msg.sender, amount, false);\r\n                } else {\r\n                    balanceOf[msg.sender] = amount;\r\n                }\r\n            }\r\n        }\r\n\r\n        if (fundingGoalReached && beneficiary == msg.sender) {\r\n            if (beneficiary.send(amountRaised)) {\r\n                FundTransfer(beneficiary, amountRaised, false);\r\n            } else {\r\n                //If we fail to send the funds to beneficiary, unlock funders balance\r\n                fundingGoalReached = false;\r\n            }\r\n        }\r\n    }\r\n\r\n    function transferOwnership(address _newOwner) public {\r\n      require(msg.sender == beneficiary); // Only the owner of the crowdsale contract should be able to call this function.\r\n\r\n      // I assume the crowdsale contract holds a reference to the token contract.\r\n      tokenReward.transferOwnership(msg.sender);\r\n    }\r\n}\r\n",
  "sourcePath": "C:\\Users\\yubolun\\Desktop\\my-ico\\contracts\\LeekCoinCrowdsale.sol",
  "compiler": {
    "name": "solc",
    "version": "0.4.19+commit.c4cbbb05.Emscripten.clang"
  },
  "schemaVersion": "1.0.1",
  "updatedAt": "2018-02-05T14:47:35.850Z"
}